{
  "address": "0xf62cd7C8f3A965c3252270d668c7BeBEa1DD1abb",
  "abi": [
    {
      "inputs": [
        {
          "internalType": "address",
          "name": "_vault",
          "type": "address"
        },
        {
          "internalType": "address",
          "name": "_ve",
          "type": "address"
        }
      ],
      "stateMutability": "nonpayable",
      "type": "constructor"
    },
    {
      "anonymous": false,
      "inputs": [
        {
          "indexed": true,
          "internalType": "uint256",
          "name": "rewardId",
          "type": "uint256"
        },
        {
          "indexed": false,
          "internalType": "uint256",
          "name": "amount",
          "type": "uint256"
        },
        {
          "indexed": false,
          "internalType": "uint256",
          "name": "veSupply",
          "type": "uint256"
        },
        {
          "indexed": false,
          "internalType": "uint256",
          "name": "block",
          "type": "uint256"
        },
        {
          "indexed": false,
          "internalType": "uint256",
          "name": "deadline",
          "type": "uint256"
        }
      ],
      "name": "AddReward",
      "type": "event"
    },
    {
      "anonymous": false,
      "inputs": [
        {
          "indexed": true,
          "internalType": "uint256",
          "name": "rewardId",
          "type": "uint256"
        },
        {
          "indexed": true,
          "internalType": "address",
          "name": "account",
          "type": "address"
        },
        {
          "indexed": false,
          "internalType": "uint256",
          "name": "amount",
          "type": "uint256"
        },
        {
          "indexed": false,
          "internalType": "address",
          "name": "recipient",
          "type": "address"
        }
      ],
      "name": "Claim",
      "type": "event"
    },
    {
      "anonymous": false,
      "inputs": [
        {
          "indexed": true,
          "internalType": "address",
          "name": "previousOwner",
          "type": "address"
        },
        {
          "indexed": true,
          "internalType": "address",
          "name": "newOwner",
          "type": "address"
        }
      ],
      "name": "OwnershipTransferred",
      "type": "event"
    },
    {
      "anonymous": false,
      "inputs": [
        {
          "indexed": true,
          "internalType": "address",
          "name": "from",
          "type": "address"
        },
        {
          "indexed": false,
          "internalType": "uint256",
          "name": "amount",
          "type": "uint256"
        }
      ],
      "name": "Receive",
      "type": "event"
    },
    {
      "anonymous": false,
      "inputs": [
        {
          "indexed": true,
          "internalType": "uint256",
          "name": "rewardId",
          "type": "uint256"
        },
        {
          "indexed": false,
          "internalType": "uint256",
          "name": "amount",
          "type": "uint256"
        },
        {
          "indexed": false,
          "internalType": "address",
          "name": "recipient",
          "type": "address"
        }
      ],
      "name": "Withdraw",
      "type": "event"
    },
    {
      "inputs": [
        {
          "internalType": "uint256",
          "name": "amount",
          "type": "uint256"
        },
        {
          "internalType": "uint256",
          "name": "blockNumber",
          "type": "uint256"
        },
        {
          "internalType": "uint256",
          "name": "deadline",
          "type": "uint256"
        }
      ],
      "name": "addReward",
      "outputs": [],
      "stateMutability": "nonpayable",
      "type": "function"
    },
    {
      "inputs": [
        {
          "internalType": "uint256",
          "name": "",
          "type": "uint256"
        },
        {
          "internalType": "address",
          "name": "",
          "type": "address"
        }
      ],
      "name": "amountClaimed",
      "outputs": [
        {
          "internalType": "uint256",
          "name": "",
          "type": "uint256"
        }
      ],
      "stateMutability": "view",
      "type": "function"
    },
    {
      "inputs": [
        {
          "internalType": "uint256",
          "name": "rewardId",
          "type": "uint256"
        },
        {
          "internalType": "address",
          "name": "recipient",
          "type": "address"
        }
      ],
      "name": "claim",
      "outputs": [],
      "stateMutability": "nonpayable",
      "type": "function"
    },
    {
      "inputs": [],
      "name": "owner",
      "outputs": [
        {
          "internalType": "address",
          "name": "",
          "type": "address"
        }
      ],
      "stateMutability": "view",
      "type": "function"
    },
    {
      "inputs": [],
      "name": "renounceOwnership",
      "outputs": [],
      "stateMutability": "nonpayable",
      "type": "function"
    },
    {
      "inputs": [
        {
          "internalType": "uint256",
          "name": "",
          "type": "uint256"
        }
      ],
      "name": "rewards",
      "outputs": [
        {
          "internalType": "uint256",
          "name": "amount",
          "type": "uint256"
        },
        {
          "internalType": "uint256",
          "name": "veSupply",
          "type": "uint256"
        },
        {
          "internalType": "uint256",
          "name": "block",
          "type": "uint256"
        },
        {
          "internalType": "uint256",
          "name": "deadline",
          "type": "uint256"
        },
        {
          "internalType": "uint256",
          "name": "amountClaimed",
          "type": "uint256"
        },
        {
          "internalType": "bool",
          "name": "withdrawn",
          "type": "bool"
        }
      ],
      "stateMutability": "view",
      "type": "function"
    },
    {
      "inputs": [],
      "name": "rewardsLength",
      "outputs": [
        {
          "internalType": "uint256",
          "name": "",
          "type": "uint256"
        }
      ],
      "stateMutability": "view",
      "type": "function"
    },
    {
      "inputs": [
        {
          "internalType": "address",
          "name": "newOwner",
          "type": "address"
        }
      ],
      "name": "transferOwnership",
      "outputs": [],
      "stateMutability": "nonpayable",
      "type": "function"
    },
    {
      "inputs": [],
      "name": "vault",
      "outputs": [
        {
          "internalType": "address",
          "name": "",
          "type": "address"
        }
      ],
      "stateMutability": "view",
      "type": "function"
    },
    {
      "inputs": [],
      "name": "ve",
      "outputs": [
        {
          "internalType": "address",
          "name": "",
          "type": "address"
        }
      ],
      "stateMutability": "view",
      "type": "function"
    },
    {
      "inputs": [
        {
          "internalType": "uint256",
          "name": "rewardId",
          "type": "uint256"
        },
        {
          "internalType": "address",
          "name": "recipient",
          "type": "address"
        }
      ],
      "name": "withdraw",
      "outputs": [],
      "stateMutability": "nonpayable",
      "type": "function"
    },
    {
      "stateMutability": "payable",
      "type": "receive"
    }
  ],
  "transactionHash": "0x962e793a30e18f94e3909909cede02ee8cf9c06fa7b24055cb57645ea4cd0206",
  "args": [
    "0x293Ae5226D3Bda6969348D8b211A73Ad7Cafb7Ea",
    "0x77D3d884FeA1E389150a26D4569b20ebA284A86d"
  ],
  "solcInputHash": "d7b0c161d3b544074dfaa4c3a3ff6874",
  "bytecode": "0x60c060405234801561001057600080fd5b50604051610eea380380610eea83398101604081905261002f916100bb565b6100383361004f565b6001600160a01b039182166080521660a0526100ee565b600080546001600160a01b038381166001600160a01b0319831681178455604051919092169283917f8be0079c531659141344cd1fd0a4f28419497f9722a3daafe3b4186f6b6457e09190a35050565b80516001600160a01b03811681146100b657600080fd5b919050565b600080604083850312156100ce57600080fd5b6100d78361009f565b91506100e56020840161009f565b90509250929050565b60805160a051610dc261012860003960008181610114015281816105f7015261090e01526000818161029e015261057c0152610dc26000f3fe60806040526004361061009f5760003560e01c8063bbb356d511610064578063bbb356d5146101a6578063bbda7a60146101c5578063ddd5e1b2146101fd578063f2fde38b1461021d578063f301af421461023d578063fbfa77cf1461028c57600080fd5b8062f714ce146100e05780631f850716146101025780634681629014610153578063715018a6146101735780638da5cb5b1461018857600080fd5b366100db5760405134815233907fd6717f327e0cb88b4a97a7f67a453e9258252c34937ccbdd86de7cb840e7def39060200160405180910390a2005b600080fd5b3480156100ec57600080fd5b506101006100fb366004610c0f565b6102c0565b005b34801561010e57600080fd5b506101367f000000000000000000000000000000000000000000000000000000000000000081565b6040516001600160a01b0390911681526020015b60405180910390f35b34801561015f57600080fd5b5061010061016e366004610c3b565b61044f565b34801561017f57600080fd5b506101006107f5565b34801561019457600080fd5b506000546001600160a01b0316610136565b3480156101b257600080fd5b506001545b60405190815260200161014a565b3480156101d157600080fd5b506101b76101e0366004610c0f565b600260209081526000928352604080842090915290825290205481565b34801561020957600080fd5b50610100610218366004610c0f565b61082b565b34801561022957600080fd5b50610100610238366004610c67565b610abf565b34801561024957600080fd5b5061025d610258366004610c89565b610b5a565b6040805196875260208701959095529385019290925260608401526080830152151560a082015260c00161014a565b34801561029857600080fd5b506101367f000000000000000000000000000000000000000000000000000000000000000081565b6000546001600160a01b031633146102f35760405162461bcd60e51b81526004016102ea90610ca2565b60405180910390fd5b60006001838154811061030857610308610cd7565b60009182526020909120600690910201600581015490915060ff16156103625760405162461bcd60e51b815260206004820152600f60248201526e2b22a9221d102ba4aa24222920aba760891b60448201526064016102ea565b42816003015411156103aa5760405162461bcd60e51b8152602060048201526011602482015270159154910e881393d517d1561412549151607a1b60448201526064016102ea565b60058101805460ff19166001179055600481015481546000916103cc91610d03565b604080518281526001600160a01b038616602082015291925085917f71ef96c43343734b1d843bb85d52ef329f5e9143e4d35827771e3b0dd90c5f84910160405180910390a26040516001600160a01b0384169082156108fc029083906000818181858888f19350505050158015610448573d6000803e3d6000fd5b5050505050565b6000546001600160a01b031633146104795760405162461bcd60e51b81526004016102ea90610ca2565b600083116104c95760405162461bcd60e51b815260206004820152601760248201527f564552443a20494e56414c49445f5245574152445f494400000000000000000060448201526064016102ea565b438211156105195760405162461bcd60e51b815260206004820152601a60248201527f564552443a20494e56414c49445f424c4f434b5f4e554d42455200000000000060448201526064016102ea565b4381116105615760405162461bcd60e51b8152602060048201526016602482015275564552443a20494e56414c49445f444541444c494e4560501b60448201526064016102ea565b604051627b8a6760e11b8152600481018490523060248201527f00000000000000000000000000000000000000000000000000000000000000006001600160a01b03169062f714ce90604401600060405180830381600087803b1580156105c757600080fd5b505af11580156105db573d6000803e3d6000fd5b5050604051630981b24d60e41b815260048101859052600092507f00000000000000000000000000000000000000000000000000000000000000006001600160a01b0316915063981b24d090602401602060405180830381865afa158015610647573d6000803e3d6000fd5b505050506040513d601f19601f8201168201806040525081019061066b9190610d1a565b600180546040805160c08101825288815260208082018681528284018a815260608085018b81526000608080880182815260a089018381528b8d018d559b90925296517fb10e2d527612073b26eecdfd717e6a320cf44b4afac2b0732d9fcbe2b7fa0cf660068b029081019190915594517fb10e2d527612073b26eecdfd717e6a320cf44b4afac2b0732d9fcbe2b7fa0cf786015592517fb10e2d527612073b26eecdfd717e6a320cf44b4afac2b0732d9fcbe2b7fa0cf8850155517fb10e2d527612073b26eecdfd717e6a320cf44b4afac2b0732d9fcbe2b7fa0cf984015590517fb10e2d527612073b26eecdfd717e6a320cf44b4afac2b0732d9fcbe2b7fa0cfa83015595517fb10e2d527612073b26eecdfd717e6a320cf44b4afac2b0732d9fcbe2b7fa0cfb909101805460ff191691151591909117905582518a81529081018690529182018890529281018690529293509182917fa6b1fccac23badf41dc2a5755caaae2c69ddb7fbb8f1429510756f66d2819a6a910160405180910390a25050505050565b6000546001600160a01b0316331461081f5760405162461bcd60e51b81526004016102ea90610ca2565b6108296000610ba3565b565b6000828152600260209081526040808320338452909152902054156108825760405162461bcd60e51b815260206004820152600d60248201526c159154910e8810d31052535151609a1b60448201526064016102ea565b60006001838154811061089757610897610cd7565b90600052602060002090600602019050806003015442106108ea5760405162461bcd60e51b815260206004820152600d60248201526c159154910e8811561412549151609a1b60448201526064016102ea565b600281015460405163277166bf60e11b8152336004820152602481018290526000907f00000000000000000000000000000000000000000000000000000000000000006001600160a01b031690634ee2cd7e90604401602060405180830381865afa15801561095d573d6000803e3d6000fd5b505050506040513d601f19601f820116820180604052508101906109819190610d1a565b9050600081116109d35760405162461bcd60e51b815260206004820152601a60248201527f564552443a20494e53554646494349454e545f42414c414e434500000000000060448201526064016102ea565b60018301548354600091906109e89084610d33565b6109f29190610d52565b905080846004016000828254610a089190610d74565b9091555050600086815260026020908152604080832033845290915290208190556001600160a01b038516610a3b573394505b604080518281526001600160a01b0387166020820152339188917fb3e541dfcecf12a9a49633b6f58c2ea1a09b9fa7ea6ac95f2e3ca38fcdfc49ab910160405180910390a36040516001600160a01b0386169082156108fc029083906000818181858888f19350505050158015610ab6573d6000803e3d6000fd5b50505050505050565b6000546001600160a01b03163314610ae95760405162461bcd60e51b81526004016102ea90610ca2565b6001600160a01b038116610b4e5760405162461bcd60e51b815260206004820152602660248201527f4f776e61626c653a206e6577206f776e657220697320746865207a65726f206160448201526564647265737360d01b60648201526084016102ea565b610b5781610ba3565b50565b60018181548110610b6a57600080fd5b60009182526020909120600690910201805460018201546002830154600384015460048501546005909501549395509193909260ff1686565b600080546001600160a01b038381166001600160a01b0319831681178455604051919092169283917f8be0079c531659141344cd1fd0a4f28419497f9722a3daafe3b4186f6b6457e09190a35050565b80356001600160a01b0381168114610c0a57600080fd5b919050565b60008060408385031215610c2257600080fd5b82359150610c3260208401610bf3565b90509250929050565b600080600060608486031215610c5057600080fd5b505081359360208301359350604090920135919050565b600060208284031215610c7957600080fd5b610c8282610bf3565b9392505050565b600060208284031215610c9b57600080fd5b5035919050565b6020808252818101527f4f776e61626c653a2063616c6c6572206973206e6f7420746865206f776e6572604082015260600190565b634e487b7160e01b600052603260045260246000fd5b634e487b7160e01b600052601160045260246000fd5b600082821015610d1557610d15610ced565b500390565b600060208284031215610d2c57600080fd5b5051919050565b6000816000190483118215151615610d4d57610d4d610ced565b500290565b600082610d6f57634e487b7160e01b600052601260045260246000fd5b500490565b60008219821115610d8757610d87610ced565b50019056fea2646970667358221220ea6d8e84c7c64cbbbef1af2049fa301da1efbea4bdc9f1e6e0b0488f61e1248e64736f6c634300080d0033",
  "devdoc": {
    "kind": "dev",
    "methods": {
      "owner()": {
        "details": "Returns the address of the current owner."
      },
      "renounceOwnership()": {
        "details": "Leaves the contract without owner. It will not be possible to call `onlyOwner` functions anymore. Can only be called by the current owner. NOTE: Renouncing ownership will leave the contract without an owner, thereby removing any functionality that is only available to the owner."
      },
      "transferOwnership(address)": {
        "details": "Transfers ownership of the contract to a new account (`newOwner`). Can only be called by the current owner."
      }
    },
    "version": 1
  },
  "userdoc": {
    "kind": "user",
    "methods": {},
    "version": 1
  },
  "storageLayout": {
    "storage": [
      {
        "astId": 337,
        "contract": "contracts/VERewardDistributor.sol:VERewardDistributor",
        "label": "_owner",
        "offset": 0,
        "slot": "0",
        "type": "t_address"
      },
      {
        "astId": 2652,
        "contract": "contracts/VERewardDistributor.sol:VERewardDistributor",
        "label": "rewards",
        "offset": 0,
        "slot": "1",
        "type": "t_array(t_struct(Reward)2644_storage)dyn_storage"
      },
      {
        "astId": 2658,
        "contract": "contracts/VERewardDistributor.sol:VERewardDistributor",
        "label": "amountClaimed",
        "offset": 0,
        "slot": "2",
        "type": "t_mapping(t_uint256,t_mapping(t_address,t_uint256))"
      }
    ],
    "types": {
      "t_address": {
        "encoding": "inplace",
        "label": "address",
        "numberOfBytes": "20"
      },
      "t_array(t_struct(Reward)2644_storage)dyn_storage": {
        "base": "t_struct(Reward)2644_storage",
        "encoding": "dynamic_array",
        "label": "struct VERewardDistributor.Reward[]",
        "numberOfBytes": "32"
      },
      "t_bool": {
        "encoding": "inplace",
        "label": "bool",
        "numberOfBytes": "1"
      },
      "t_mapping(t_address,t_uint256)": {
        "encoding": "mapping",
        "key": "t_address",
        "label": "mapping(address => uint256)",
        "numberOfBytes": "32",
        "value": "t_uint256"
      },
      "t_mapping(t_uint256,t_mapping(t_address,t_uint256))": {
        "encoding": "mapping",
        "key": "t_uint256",
        "label": "mapping(uint256 => mapping(address => uint256))",
        "numberOfBytes": "32",
        "value": "t_mapping(t_address,t_uint256)"
      },
      "t_struct(Reward)2644_storage": {
        "encoding": "inplace",
        "label": "struct VERewardDistributor.Reward",
        "members": [
          {
            "astId": 2633,
            "contract": "contracts/VERewardDistributor.sol:VERewardDistributor",
            "label": "amount",
            "offset": 0,
            "slot": "0",
            "type": "t_uint256"
          },
          {
            "astId": 2635,
            "contract": "contracts/VERewardDistributor.sol:VERewardDistributor",
            "label": "veSupply",
            "offset": 0,
            "slot": "1",
            "type": "t_uint256"
          },
          {
            "astId": 2637,
            "contract": "contracts/VERewardDistributor.sol:VERewardDistributor",
            "label": "block",
            "offset": 0,
            "slot": "2",
            "type": "t_uint256"
          },
          {
            "astId": 2639,
            "contract": "contracts/VERewardDistributor.sol:VERewardDistributor",
            "label": "deadline",
            "offset": 0,
            "slot": "3",
            "type": "t_uint256"
          },
          {
            "astId": 2641,
            "contract": "contracts/VERewardDistributor.sol:VERewardDistributor",
            "label": "amountClaimed",
            "offset": 0,
            "slot": "4",
            "type": "t_uint256"
          },
          {
            "astId": 2643,
            "contract": "contracts/VERewardDistributor.sol:VERewardDistributor",
            "label": "withdrawn",
            "offset": 0,
            "slot": "5",
            "type": "t_bool"
          }
        ],
        "numberOfBytes": "192"
      },
      "t_uint256": {
        "encoding": "inplace",
        "label": "uint256",
        "numberOfBytes": "32"
      }
    }
  }
}